:1000000085C00000B1C00000AFC00000ADC000005E
:10001000ABC00000A9C00000A7C00000A5C0000040
:10002000A3C00000A1C000009FC000009DC0000050
:100030009BC0000099C0000097C0000095C0000060
:1000400093C0000091C000008FC000008DC0000070
:100050008BC0000089C0000087C0000053C20000B0
:1000600083C00000C2C2000097C200007DC0000033
:100070007BC0000079C0000077C0000075C00000A0
:1000800073C0000071C000006FC000006DC00000B0
:100090006BC0000069C0000067C0000065C00000C0
:1000A00063C0000061C000005FC000005DC00000D0
:1000B0005BC0000059C0000057C0000055C00000E0
:1000C00053C0000051C000004FC000004DC00000F0
:1000D0004BC0000049C0000047C0000045C0000000
:1000E00043C00000707265737320272A2720746F45
:1000F000206C6F6F700057445420746573742073C4
:100100007569746521002E200000120411241FBEA1
:10011000CFEFD1E2DEBFCDBF00E00CBF12E0A0E028
:10012000B2E0EAE9F8E000E00BBF02C007900D92F0
:10013000A032B107D9F722E0A0E2B2E001C01D92DF
:10014000A93CB207E1F710E0C6E8D0E000E005C046
:1001500021970109802FFE0192D3C538D10780E095
:100160000807B1F778D297C34BCF0F931F93CF9364
:10017000DF938C01C0E0D0E0F801EC0FFD1F64912B
:10018000662371F0E0912C02F0912D020190F08134
:10019000E02D8CE292E01995892B11F02196ECCF9D
:1001A000CE01DF91CF911F910F9108953FB7F89441
:1001B0008091280290912902A0912A02B0912B02ED
:1001C00026B5A89B05C02F3F19F00196A11DB11DB2
:1001D0003FBFBA2FA92F982F8827820F911DA11DED
:1001E000B11DBC01CD0142E0660F771F881F991F2A
:1001F0004A95D1F708958F929F92AF92BF92CF9276
:10020000DF92EF92FF92D2DF4B015C0184E6C82EB1
:10021000D12CE12CF12CCADFDC01CB018819990922
:10022000AA09BB09883E9340A105B10558F021E019
:10023000C21AD108E108F10888EE880E83E0981E02
:10024000A11CB11CC114D104E104F10421F7FF90F9
:10025000EF90DF90CF90BF90AF909F908F900895D8
:10026000CF92DF92EF92FF920F931F93CF93DF9382
:100270006C017A018B01C0E0D0E0CE15DF0589F07A
:10028000D8016D918D01D601ED91FC910190F08125
:10029000E02DC6011995892B11F47E0102C021962B
:1002A000ECCFC701DF91CF911F910F91FF90EF909D
:1002B000DF90CF900895089580E090E00895FC01CC
:1002C000538D448D252F30E0842F90E0821B930BBB
:1002D000541710F0CF96089501970895FC01918D61
:1002E000828D981761F0828DDF01A80FB11D5D9698
:1002F0008C91928D9F5F9F73928F90E008958FEF06
:100300009FEF0895FC01918D828D981731F0828DB9
:10031000E80FF11D858D90E008958FEF9FEF089510
:10032000FC01918D228D892F90E0805C9F4F821B74
:1003300091098F73992708958CE292E0F1DF21E013
:10034000892B09F420E0822F0895FC01848DDF01C0
:10035000A80FB11DA35ABF4F2C91848D90E0019638
:100360008F739927848FA689B7892C93A089B18927
:100370008C9180648C93938D848D981306C0028831
:10038000F389E02D80818F7D80830895EF92FF9225
:100390000F931F93CF93DF93EC0181E0888F9B8DA8
:1003A0008C8D981305C0E889F989808185FD23C06B
:1003B000F62E0B8D10E00F5F1F4F0F731127E02EED
:1003C0008C8DE8120BC00FB607FCFACFE889F989CB
:1003D000808185FFF5CFCE01B8DFF2CF8B8DFE0196
:1003E000E80FF11DE35AFF4FF0820B8FEA89FB897A
:1003F0008081806207C0EE89FF896083E889F9897E
:1004000080818064808381E090E0DF91CF911F91B3
:100410000F91FF90EF900895CF93DF93EC01888DBB
:100420008823C1F0EA89FB89808185FD05C0A88900
:10043000B9898C9186FD0EC00FB607FCF5CF80817F
:1004400085FFF2CFA889B9898C9185FFEDCFCE01C8
:100450007CDFE8CFDF91CF910895CF93C1E08CE2AC
:1004600092E05EDF892B41F08CE292E037DF8A3246
:10047000B1F7C0932202F3CFCF9108955DDF8111D0
:1004800025C080E090E0892B41F080E090E0892B4E
:1004900021F00E94000081111BC080E090E0892BB8
:1004A00041F080E090E0892B21F00E940000811152
:1004B00012C080E090E0892B99F080E090E0892BD9
:1004C00079F00E940000811109C00895C6DFD9CFDC
:1004D0000E940000E2CF0E940000EBCF0C940000CD
:1004E0000895CF93DF9341DEEC0142E050E062E1FA
:1004F00072E08CE292E0B4DE8C0F9D1FDF91CF9111
:100500000895C5D11F920F920FB60F9211242F9309
:100510003F938F939F93AF93BF93809124029091C9
:100520002502A0912602B09127023091230223E0F8
:10053000230F2D3720F40196A11DB11D05C026E81B
:10054000230F0296A11DB11D209323028093240244
:1005500090932502A0932602B0932702809128024F
:1005600090912902A0912A02B0912B020196A11D1F
:10057000B11D8093280290932902A0932A02B09380
:100580002B02BF91AF919F918F913F912F910F902F
:100590000FBE0F901F9018951F920F920FB60F92DB
:1005A00011240BB60F922F933F934F935F936F934A
:1005B0007F938F939F93AF93BF93EF93FF938CE2BF
:1005C00092E0C3DEFF91EF91BF91AF919F918F9128
:1005D0007F916F915F914F913F912F910F900BBE43
:1005E0000F900FBE0F901F9018951F920F920FB68D
:1005F0000F9211240BB60F922F938F939F93EF932B
:10060000FF93E0913C02F0913D028081E091420233
:10061000F091430282FD12C09081809145028F5F6C
:100620008F7320914602821751F0E0914502F0E06D
:10063000E45DFD4F958F8093450201C08081FF915D
:10064000EF919F918F912F910F900BBE0F900FBE46
:100650000F901F901895789484B5826084BD84B5FE
:10066000816084BD85B5826085BD85B5816085BDAD
:1006700080916E00816080936E0010928100809165
:1006800081008260809381008091810081608093ED
:100690008100809180008160809380008091B10012
:1006A00084608093B1008091B00081608093B0003D
:1006B000809191008260809391008091910081608F
:1006C0008093910080919000816080939000809150
:1006D000A10082608093A1008091A100816080933D
:1006E000A1008091A00081608093A00080912101F1
:1006F000826080932101809121018160809321019A
:100700008091200181608093200180917A00846033
:1007100080937A0080917A00826080937A00809141
:100720007A00816080937A0080917A00806880935B
:100730007A001092C1009FE088E10FB6F894A89566
:10074000809360000FBE90936000E0913C02F091B6
:100750003D0282E08083E0913802F09139021082FC
:10076000E0913A02F0913B0280E1808310924402D2
:10077000E0914002F091410286E08083E0913E02E8
:10078000F0913F02808180618083E0913E02F09190
:100790003F02808188608083E0913E02F0913F02B9
:1007A000808180688083E0913E02F0913F028081E9
:1007B0008F7D808386EF90E094DE84EE90E091DE82
:1007C0001ADD80912202811110C0A895809120022B
:1007D00090912102019690932102809320024497E8
:1007E0009CF486E091E0C1DC1AC04AE050E065E18B
:1007F00072E08CE292E034DD42E050E062E172E0CF
:100800008CE292E02DDDFFCF1092210210922002A7
:1008100042E050E062E172E08CE292E021DDEBDC4C
:100820002DDECFCFECE2F2E01382128288EE93E06D
:10083000A0E0B0E084839583A683B78384E092E050
:100840009183808385EC90E09587848784EC90E0A9
:100850009787868780EC90E0918B808B81EC90E08D
:10086000938B828B82EC90E0958B848B86EC90E06E
:10087000978B868B118E128E138E148E0895EE0F29
:10088000FF1F881F8BBF0790F691E02D199481E020
:0A08900090E0F89400C0F894FFCF48
:10089A0000000000C60130015F010C0290016E01E8
:1008AA0082010D0A000A726573657474696E6700C5
:00000001FF
